S00E00005350495F54582E737265631F
S11300000C942A000C9447000C9447000C9447006D
S11300100C9447000C9447000C9447000C94470040
S11300200C9447000C9447000C9449000C9447002E
S11300300C946E000C9447000C9447000C944700F9
S11300400C9447000C9447000C9447000C94470010
S11300500C94470011241FBECFE5D8E0DEBFCDBF0E
S113006010E0A0E6B0E0E6EFF0E002C005900D92EB
S1130070A036B107D9F720E0A0E6B0E001C01D9298
S1130080A936B207E1F70E9478000C9479000C9429
S113009000001F920F920FB60F9211242F933F93DB
S11300A08F939F93EF93FF9330916800332359F01C
S11300B0E0E6F0E020E080819181019681939193C4
S11300C02F5F2313F8CFFF91EF919F918F913F9171
S11300D02F910F900FBE0F901F9018951F920F92A3
S11300E00FB60F9211240F900FBE0F901F9018950A
S10900F0FFCFF894FFCFDE
S9030000FC
