S00E00005350495F52582E7372656321
S11300000C942A000C9447000C9447000C9447006D
S11300100C9447000C9447000C9447000C94470040
S11300200C9447000C9447000C9449000C9447002E
S11300300C94C1020C9447000C9447000C944700A4
S11300400C9447000C9447000C9447000C94470010
S11300500C94470011241FBECFE5D8E0DEBFCDBF0E
S113006010E0A0E6B0E0EEEEF5E002C005900D92DF
S1130070A836B107D9F720E0A8E6B0E001C01D9288
S1130080A237B207E1F70E94D0020C94F5020C9457
S113009000001F920F920FB60F9211242F933F93DB
S11300A08F939F93EF93FF9330917000332359F014
S11300B0E8E6F0E020E080819181019681939193BC
S11300C02F5F2313F8CFFF91EF919F918F913F9171
S11300D02F910F900FBE0F901F901895883008F540
S11300E0613071F44AB321E030E0B90102C0660F17
S11300F0771F8A95E2F7CB01842B8ABB80E00895B1
S113010061117DC04AB321E030E0B90102C0660F3D
S1130110771F8A95E2F7CB01809584238ABB80E020
S1130120089598EF980F983008F5613071F447B34B
S113013021E030E0B90102C0660F771F9A95E2F71B
S1130140CB01842B87BB80E0089561115AC047B36B
S113015021E030E0B90102C0660F771F9A95E2F7FB
S1130160CB018095842387BB80E0089590EF980F9E
S1130170983008F5613071F444B321E030E0B901FE
S113018002C0660F771F9A95E2F7CB01842B84BBDC
S113019080E00895611137C044B321E030E0B90133
S11301A002C0660F771F9A95E2F7CB0180958423EE
S11301B084BB80E008958851883038F5613071F44B
S11301C041B321E030E0B90102C0660F771F8A9580
S11301D0E2F7CB01842B81BB80E00895611117C045
S11301E041B321E030E0B90102C0660F771F8A9560
S11301F0E2F7CB018095842381BB80E0089581E000
S1130200089581E0089581E0089581E0089581E0F2
S1130210089581110BC06F3F21F48FEF8ABB80E0FA
S1130220089561112AC01ABA80E00895813059F402
S11302306F3F21F48FEF87BB80E0089561111FC0E9
S113024017BA80E00895823059F46F3F21F48FEF9C
S113025084BB80E00895611114C014BA80E008954D
S1130260833089F46F3F21F48FEF81BB80E00895E0
S113027061110BC011BA80E0089581E0089581E016
S1130280089581E0089581E0089581E0089588301B
S113029008F5613071F44BB321E030E0B90102C0DC
S11302A0660F771F8A95E2F7CB01842B8BBB80E026
S11302B0089561117DC04BB321E030E0B90102C063
S11302C0660F771F8A95E2F7CB01809584238BBB59
S11302D080E0089598EF980F983008F5613071F434
S11302E048B321E030E0B90102C0660F771F9A9548
S11302F0E2F7CB01842B88BB80E0089561115AC0DA
S113030048B321E030E0B90102C0660F771F9A9527
S1130310E2F7CB018095842388BB80E0089590EFB9
S1130320980F983008F5613071F445B321E030E05E
S1130330B90102C0660F771F9A95E2F7CB01842BAF
S113034085BB80E00895611137C045B321E030E0FA
S1130350B90102C0660F771F9A95E2F7CB01809529
S1130360842385BB80E008958851883038F5613056
S113037071F442B321E030E0B90102C0660F771F87
S11303808A95E2F7CB01842B82BB80E0089561114A
S113039017C042B321E030E0B90102C0660F771FF5
S11303A08A95E2F7CB018095842382BB80E008958F
S11303B081E0089581E0089581E0089581E0089541
S11303C081E00895CF93DF93EC018881813009F0B7
S11303D078C06C9A61E08CE00E946E0061E08DE070
S11303E00E946E0060E08EE00E946E0061E08FE08B
S11303F00E946E00898181111AC070988A818130AF
S113040051F028F0823059F0833069F026C06898A2
S1130410699880E027C0689A699880E023C068984A
S1130420699A80E01FC0689A699A80E01BC0813095
S1130430B1F4709A8A81813041F018F0823049F029
S113044010C06898699880E00DC0689A699880E047
S113045009C06898699A80E005C08EEF03C08FEFE9
S113046001C08EEF9B81913041F46F9A9FB79068E1
S11304709FBF91E09093710006C0911103C0109248
S1130480710001C08CEF9D81911102C06D9805C06F
S1130490913011F46D9A01C08BEF9E81911102C0CD
S11304A06B9805C0913011F46B9A01C08AEF9C815E
S11304B0911102C06A984CC0913009F044C06A9A04
S11304C047C0811142C06C9860E08CE00E946E00CD
S11304D060E08DE00E946E0061E08EE00E946E009C
S11304E060E08FE00E946E008B81813049F46F9A46
S11304F08FB780688FBF81E08093710080E006C071
S1130500811103C01092710001C08CEF9D81911183
S113051002C06D9805C0913011F46D9A01C08BEF43
S11305209E81911102C06B9805C0913011F46B9AB1
S113053001C08AEF9C81911102C06A9809C0913070
S113054031F46A9A05C089EF03C08DEF01C089EFC9
S11305506E9ADF91CF910895FC01909171009130D2
S113056031F4109260008FB1808380E0089591117E
S113057006C0779BFECF8FB1808380E008958CEF17
S113058008951F920F920FB60F9211248F9381E05A
S1130590809360008F910F900FBE0F901F9018955D
S11305A0CF93DF931F92CDB7DEB719826FEF81E04F
S11305B00E94090161E08AE10E946E0061E08BE122
S11305C00E946E0061E08AE10E94470161E08BE1D4
S11305D00E94470181E690E00E94E201CE0101966B
S11105E00E94AC02898188BBF9CFF894FFCF4A
S10B05EE0100000001000000FF
S9030000FC
