S0130000544D555F50524F4A4543542E73726563A5
S11300000C942A000C9447000C9447000C9447006D
S11300100C9447000C9447000C9447000C94470040
S11300200C9447000C9447000C9417010C9447005F
S11300300C9447000C9447000C9447000C94470020
S11300400C9447000C9447000C9447000C94470010
S11300500C94470011241FBECFE5D8E0DEBFCDBF0E
S113006010E0A0E6B0E0E2E7F5E002C005900D92F2
S1130070AC37B107D9F720E0ACE7B0E001C01D927E
S1130080A63AB207E1F70E949C020C94B7020C94C2
S1130090000098B382E0892788BB089598B384E070
S11300A0892788BB089598B388E0892788BB089579
S11300B098B380E1892788BB0895CF93DF938F316C
S11300C0910558F4EC0188E790E00E947A01D093FE
S11300D09F00C0939E0080E001C08FEFDF91CF911D
S11300E00895DC014D915C9111974115510509F476
S11300F042C090919D00E92FF0E09F01220F331F31
S1130100E20FF31FEE0FFF1FEC57FF4F51834083A5
S113011012964D915C9113975383428314968C915C
S11301201497848315968C918583F901E458FF4FC5
S11301301182108281E0890F80939D008530E8F45C
S113014080919C0081111BC081E080939C00809170
S11301509E0090919F00AC01440F551F440F551F02
S1130160440F551F481B590B60E070E080E00E946B
S1130170F20180E008958DEF08958EEF089580E0F8
S11301800895EF92FF920F931F93CF93DF93809183
S11301909D00882309F443C010E001E0C12FD0E0A2
S11301A0CE01880F991FFC01EC0FFD1FEE0FFF1FFE
S11301B0EC57FF4FDC01A458BF4F228133818D914E
S11301C09C9111972817390719F5FE01EE0FFF1FAF
S11301D0EC0FFD1FEE0FFF1FEC57FF4F85818111C0
S11301E017C0CE01880F991FFD01118210828C0F58
S11301F09D1F880F991F9C012C573F4F7901D901EE
S1130200ED91FC910995F7018481813009F405830E
S11302101F5F80919D00181708F280E001C08CEFE9
S1130220DF91CF911F910F91FF90EF9008951F924E
S11302300F920FB60F9211242F933F938F939F9396
S1130240EF93FF9330919D00332359F0ECE7F0E0F6
S113025020E0808191810196819391932F5F2313F4
S1130260F8CFFF91EF919F918F913F912F910F9034
S11302700FBE0F901F90189581110BC06F3F21F492
S11302808FEF8ABB80E0089561112AC01ABA80E01A
S11302900895813059F46F3F21F48FEF87BB80E0DC
S11302A0089561111FC017BA80E00895823059F48F
S11302B06F3F21F48FEF84BB80E00895611114C077
S11302C014BA80E00895833089F46F3F21F48FEFEE
S11302D081BB80E0089561110BC011BA80E00895DC
S11302E081E0089581E0089581E0089581E0089512
S11302F081E00895FC018081813051F120F0823049
S113030009F44AC06DC08281882319F0813031F02C
S11303100AC081818093A30080E006C0818180931C
S1130320A30080E001C081E09381992319F091300A
S113033021F007C01092A00005C091E09093A000A6
S113034001C081E09181963008F44BC081E00895AA
S11303508281882319F0813031F00AC08181809331
S1130360A40080E006C081818093A40080E001C0E5
S113037081E09381992319F0913021F007C0109204
S1130380A10005C091E09093A10001C081E091819A
S1130390963038F181E008958281882319F0813004
S11303A031F00AC081818093A50080E006C081817C
S11303B08093A50080E001C081E09381992319F026
S11303C0913021F007C01092A20005C091E09093F3
S11303D0A20001C081E09181983018F081E0089575
S11303E081E008958130B9F120F0823009F465C0CC
S11303F095C04F3F51056105710508F091C080918A
S1130400A000882319F0813091F08CC083B78860F4
S113041083BF83B78F7B83BF89B78D7F89BF93B732
S11304208091A300892B83BF4CBF80E0089583B7DC
S1130430886083BF83B78F7B83BF8FB780688FBF8C
S113044089B7826089BF93B78091A300892B83BF4A
S11304504CBF80E008954115510581E0680771059E
S113046008F062C05195419551095DBD4CBD809124
S1130470A100882319F0813081F058C08EB5887F9F
S11304808EBD9EB58091A400892B8EBD88B78460F3
S113049088BF1DBC1CBC80E008958EB5887F8EBDCE
S11304A09EB58091A400892B8EBD89B7846089BFD5
S11304B08FB780688FBF80E008954F3F5105610575
S11304C07105B0F58091A200882319F0813091F074
S11304D031C085B5886085BD85B58F7B85BD89B7FD
S11304E08F7789BF95B58091A500892B85BD43BDC4
S11304F080E0089585B5886085BD85B58F7B85BD11
S11305008FB780688FBF89B7806889BF95B58091A0
S1130510A500892B85BD43BD80E0089581E0089541
S113052081E0089581E0089581E0089581E00895CF
S113053081E0089581E008956FEF81E00E943C011D
S113054081E090E00E945D0082E790E00E947100EB
S11305508CE690E00E94710086E690E00E947100B3
S113056080E690E00E9471000E94C100FDCFF894E3
S1050570FFCFB7
S11305725800200300005300F40100004E00C8009C
S10F0582000049006400010000050001B5
S9030000FC
